{
  "contractName": "BookMarketplace",
  "abi": [
    {
      "inputs": [],
      "stateMutability": "nonpayable",
      "type": "constructor"
    },
    {
      "inputs": [],
      "name": "BookHasOwner",
      "type": "error"
    },
    {
      "inputs": [],
      "name": "BookIsNotCreated",
      "type": "error"
    },
    {
      "inputs": [],
      "name": "OnlyOwner",
      "type": "error"
    },
    {
      "inputs": [],
      "name": "SenderIsNotBookOwner",
      "type": "error"
    },
    {
      "inputs": [],
      "name": "isStopped",
      "outputs": [
        {
          "internalType": "bool",
          "name": "",
          "type": "bool"
        }
      ],
      "stateMutability": "view",
      "type": "function",
      "constant": true
    },
    {
      "stateMutability": "payable",
      "type": "receive",
      "payable": true
    },
    {
      "inputs": [
        {
          "internalType": "uint256",
          "name": "amount",
          "type": "uint256"
        }
      ],
      "name": "withdraw",
      "outputs": [],
      "stateMutability": "nonpayable",
      "type": "function"
    },
    {
      "inputs": [],
      "name": "emergencyWithdraw",
      "outputs": [],
      "stateMutability": "nonpayable",
      "type": "function"
    },
    {
      "inputs": [],
      "name": "selfDestruct",
      "outputs": [],
      "stateMutability": "nonpayable",
      "type": "function"
    },
    {
      "inputs": [],
      "name": "stopContract",
      "outputs": [],
      "stateMutability": "nonpayable",
      "type": "function"
    },
    {
      "inputs": [],
      "name": "resumeContract",
      "outputs": [],
      "stateMutability": "nonpayable",
      "type": "function"
    },
    {
      "inputs": [
        {
          "internalType": "bytes16",
          "name": "bookId",
          "type": "bytes16"
        },
        {
          "internalType": "bytes32",
          "name": "proof",
          "type": "bytes32"
        }
      ],
      "name": "purchaseBook",
      "outputs": [],
      "stateMutability": "payable",
      "type": "function",
      "payable": true
    },
    {
      "inputs": [
        {
          "internalType": "address",
          "name": "newOwner",
          "type": "address"
        }
      ],
      "name": "transferOwnership",
      "outputs": [],
      "stateMutability": "nonpayable",
      "type": "function"
    },
    {
      "inputs": [],
      "name": "getBookCount",
      "outputs": [
        {
          "internalType": "uint256",
          "name": "",
          "type": "uint256"
        }
      ],
      "stateMutability": "view",
      "type": "function",
      "constant": true
    },
    {
      "inputs": [
        {
          "internalType": "uint256",
          "name": "index",
          "type": "uint256"
        }
      ],
      "name": "getBookHashAtIndex",
      "outputs": [
        {
          "internalType": "bytes32",
          "name": "",
          "type": "bytes32"
        }
      ],
      "stateMutability": "view",
      "type": "function",
      "constant": true
    },
    {
      "inputs": [
        {
          "internalType": "bytes32",
          "name": "bookHash",
          "type": "bytes32"
        }
      ],
      "name": "getBookByHash",
      "outputs": [
        {
          "components": [
            {
              "internalType": "uint256",
              "name": "id",
              "type": "uint256"
            },
            {
              "internalType": "uint256",
              "name": "price",
              "type": "uint256"
            },
            {
              "internalType": "bytes32",
              "name": "proof",
              "type": "bytes32"
            },
            {
              "internalType": "address",
              "name": "owner",
              "type": "address"
            }
          ],
          "internalType": "struct BookMarketplace.Book",
          "name": "",
          "type": "tuple"
        }
      ],
      "stateMutability": "view",
      "type": "function",
      "constant": true
    },
    {
      "inputs": [],
      "name": "getIsStopped",
      "outputs": [
        {
          "internalType": "bool",
          "name": "",
          "type": "bool"
        }
      ],
      "stateMutability": "view",
      "type": "function",
      "constant": true
    },
    {
      "inputs": [],
      "name": "getContractOwner",
      "outputs": [
        {
          "internalType": "address",
          "name": "",
          "type": "address"
        }
      ],
      "stateMutability": "view",
      "type": "function",
      "constant": true
    }
  ],
  "bytecode": "0x608060405260008060006101000a81548160ff02191690831515021790555034801561002a57600080fd5b5061003a3361003f60201b60201c565b610083565b80600460006101000a81548173ffffffffffffffffffffffffffffffffffffffff021916908373ffffffffffffffffffffffffffffffffffffffff16021790555050565b6110a5806100926000396000f3fe6080604052600436106100c65760003560e01c80638566c6701161007f578063c4bc5da511610059578063c4bc5da514610240578063d73e0c8914610257578063db2e21bc14610282578063f2fde38b14610299576100cd565b80638566c670146101e2578063858094ed146101fe5780639cb8a26a14610229576100cd565b806312253a6c146100d25780632e1a7d4d146100e95780633f683b6a14610112578063442890d51461013d578063558cc06a1461016857806367d98f95146101a5576100cd565b366100cd57005b600080fd5b3480156100de57600080fd5b506100e76102c2565b005b3480156100f557600080fd5b50610110600480360381019061010b9190610c57565b610362565b005b34801561011e57600080fd5b506101276104b8565b6040516101349190610e0e565b60405180910390f35b34801561014957600080fd5b506101526104c9565b60405161015f9190610df3565b60405180910390f35b34801561017457600080fd5b5061018f600480360381019061018a9190610c2e565b6104f3565b60405161019c9190610e64565b60405180910390f35b3480156101b157600080fd5b506101cc60048036038101906101c79190610c57565b610594565b6040516101d99190610e29565b60405180910390f35b6101fc60048036038101906101f79190610bf2565b6105b1565b005b34801561020a57600080fd5b50610213610721565b6040516102209190610e0e565b60405180910390f35b34801561023557600080fd5b5061023e610737565b005b34801561024c57600080fd5b506102556107f5565b005b34801561026357600080fd5b5061026c610894565b6040516102799190610e7f565b60405180910390f35b34801561028e57600080fd5b5061029761089e565b005b3480156102a557600080fd5b506102c060048036038101906102bb9190610bc9565b6109f2565b005b6102ca6104c9565b73ffffffffffffffffffffffffffffffffffffffff163373ffffffffffffffffffffffffffffffffffffffff161461032e576040517f5fc483c500000000000000000000000000000000000000000000000000000000815260040160405180910390fd5b60008054906101000a900460ff161561034657600080fd5b60016000806101000a81548160ff021916908315150217905550565b61036a6104c9565b73ffffffffffffffffffffffffffffffffffffffff163373ffffffffffffffffffffffffffffffffffffffff16146103ce576040517f5fc483c500000000000000000000000000000000000000000000000000000000815260040160405180910390fd5b60008054906101000a900460ff16156103e657600080fd5b6000600460009054906101000a900473ffffffffffffffffffffffffffffffffffffffff1673ffffffffffffffffffffffffffffffffffffffff168260405161042e90610dde565b60006040518083038185875af1925050503d806000811461046b576040519150601f19603f3d011682016040523d82523d6000602084013e610470565b606091505b50509050806104b4576040517f08c379a00000000000000000000000000000000000000000000000000000000081526004016104ab90610e44565b60405180910390fd5b5050565b60008054906101000a900460ff1681565b6000600460009054906101000a900473ffffffffffffffffffffffffffffffffffffffff16905090565b6104fb610b34565b600160008381526020019081526020016000206040518060800160405290816000820154815260200160018201548152602001600282015481526020016003820160009054906101000a900473ffffffffffffffffffffffffffffffffffffffff1673ffffffffffffffffffffffffffffffffffffffff1673ffffffffffffffffffffffffffffffffffffffff16815250509050919050565b600060026000838152602001908152602001600020549050919050565b60008054906101000a900460ff16156105c957600080fd5b600082336040516020016105de929190610db2565b6040516020818303038152906040528051906020012090506105ff81610a82565b15610636576040517f979b93f000000000000000000000000000000000000000000000000000000000815260040160405180910390fd5b60006003600081548092919061064b90610f34565b91905055905081600260008381526020019081526020016000208190555060405180608001604052808281526020013481526020018481526020013373ffffffffffffffffffffffffffffffffffffffff168152506001600084815260200190815260200160002060008201518160000155602082015181600101556040820151816002015560608201518160030160006101000a81548173ffffffffffffffffffffffffffffffffffffffff021916908373ffffffffffffffffffffffffffffffffffffffff16021790555090505050505050565b60008060009054906101000a900460ff16905090565b60008054906101000a900460ff1661074e57600080fd5b6107566104c9565b73ffffffffffffffffffffffffffffffffffffffff163373ffffffffffffffffffffffffffffffffffffffff16146107ba576040517f5fc483c500000000000000000000000000000000000000000000000000000000815260040160405180910390fd5b600460009054906101000a900473ffffffffffffffffffffffffffffffffffffffff1673ffffffffffffffffffffffffffffffffffffffff16ff5b6107fd6104c9565b73ffffffffffffffffffffffffffffffffffffffff163373ffffffffffffffffffffffffffffffffffffffff1614610861576040517f5fc483c500000000000000000000000000000000000000000000000000000000815260040160405180910390fd5b60008054906101000a900460ff1661087857600080fd5b60008060006101000a81548160ff021916908315150217905550565b6000600354905090565b60008054906101000a900460ff166108b557600080fd5b6108bd6104c9565b73ffffffffffffffffffffffffffffffffffffffff163373ffffffffffffffffffffffffffffffffffffffff1614610921576040517f5fc483c500000000000000000000000000000000000000000000000000000000815260040160405180910390fd5b6000600460009054906101000a900473ffffffffffffffffffffffffffffffffffffffff1673ffffffffffffffffffffffffffffffffffffffff164760405161096990610dde565b60006040518083038185875af1925050503d80600081146109a6576040519150601f19603f3d011682016040523d82523d6000602084013e6109ab565b606091505b50509050806109ef576040517f08c379a00000000000000000000000000000000000000000000000000000000081526004016109e690610e44565b60405180910390fd5b50565b6109fa6104c9565b73ffffffffffffffffffffffffffffffffffffffff163373ffffffffffffffffffffffffffffffffffffffff1614610a5e576040517f5fc483c500000000000000000000000000000000000000000000000000000000815260040160405180910390fd5b60008054906101000a900460ff1615610a7657600080fd5b610a7f81610af0565b50565b60003373ffffffffffffffffffffffffffffffffffffffff166001600084815260200190815260200160002060030160009054906101000a900473ffffffffffffffffffffffffffffffffffffffff1673ffffffffffffffffffffffffffffffffffffffff16149050919050565b80600460006101000a81548173ffffffffffffffffffffffffffffffffffffffff021916908373ffffffffffffffffffffffffffffffffffffffff16021790555050565b6040518060800160405280600081526020016000815260200160008019168152602001600073ffffffffffffffffffffffffffffffffffffffff1681525090565b600081359050610b8481611013565b92915050565b600081359050610b998161102a565b92915050565b600081359050610bae81611041565b92915050565b600081359050610bc381611058565b92915050565b600060208284031215610bdb57600080fd5b6000610be984828501610b75565b91505092915050565b60008060408385031215610c0557600080fd5b6000610c1385828601610b8a565b9250506020610c2485828601610b9f565b9150509250929050565b600060208284031215610c4057600080fd5b6000610c4e84828501610b9f565b91505092915050565b600060208284031215610c6957600080fd5b6000610c7784828501610bb4565b91505092915050565b610c8981610eb6565b82525050565b610c9881610eb6565b82525050565b610caf610caa82610eb6565b610f7d565b82525050565b610cbe81610ec8565b82525050565b610cd5610cd082610ed4565b610f8f565b82525050565b610ce481610f00565b82525050565b610cf381610f00565b82525050565b6000610d06600083610e9a565b9150610d1182610fe7565b600082019050919050565b6000610d29600e83610ea5565b9150610d3482610fea565b602082019050919050565b608082016000820151610d556000850182610d94565b506020820151610d686020850182610d94565b506040820151610d7b6040850182610cdb565b506060820151610d8e6060850182610c80565b50505050565b610d9d81610f2a565b82525050565b610dac81610f2a565b82525050565b6000610dbe8285610cc4565b601082019150610dce8284610c9e565b6014820191508190509392505050565b6000610de982610cf9565b9150819050919050565b6000602082019050610e086000830184610c8f565b92915050565b6000602082019050610e236000830184610cb5565b92915050565b6000602082019050610e3e6000830184610cea565b92915050565b60006020820190508181036000830152610e5d81610d1c565b9050919050565b6000608082019050610e796000830184610d3f565b92915050565b6000602082019050610e946000830184610da3565b92915050565b600081905092915050565b600082825260208201905092915050565b6000610ec182610f0a565b9050919050565b60008115159050919050565b60007fffffffffffffffffffffffffffffffff0000000000000000000000000000000082169050919050565b6000819050919050565b600073ffffffffffffffffffffffffffffffffffffffff82169050919050565b6000819050919050565b6000610f3f82610f2a565b91507fffffffffffffffffffffffffffffffffffffffffffffffffffffffffffffffff821415610f7257610f71610fab565b5b600182019050919050565b6000610f8882610f99565b9050919050565b6000819050919050565b6000610fa482610fda565b9050919050565b7f4e487b7100000000000000000000000000000000000000000000000000000000600052601160045260246000fd5b60008160601b9050919050565b50565b7f5472616e73666572206661696c64000000000000000000000000000000000000600082015250565b61101c81610eb6565b811461102757600080fd5b50565b61103381610ed4565b811461103e57600080fd5b50565b61104a81610f00565b811461105557600080fd5b50565b61106181610f2a565b811461106c57600080fd5b5056fea2646970667358221220cbc948bc77176215045627b814492b3f0ef42a8d4ddcbe0413ec7f436fd4bdd864736f6c63430008040033",
  "immutableReferences": {},
  "source": "// SPDX-License-Identifier: MIT\npragma solidity >=0.4.22 <0.9.0;\n\ncontract BookMarketplace {\n\n  struct Book {\n    uint id; // 32\n    uint price; // 32\n    bytes32 proof; // 32\n    address owner; // 20\n  }\n\n  bool public isStopped = false;\n\n  // mapping of bookHash to Book data\n  mapping(bytes32 => Book) private ownedBooks;\n\n  // mapping of bookID to bookHash\n  mapping(uint => bytes32) private ownedBookHash;\n\n  // number of all books + id of the book\n  uint private totalOwnedBooks;\n\n  address payable private owner;\n\n  constructor() {\n    setContractOwner(msg.sender);\n  }\n\n  /// Sender is not book owner!\n  error SenderIsNotBookOwner();\n\n  /// Book is not created\n  error BookIsNotCreated();\n\n  /// Book has already a Owner!\n  error BookHasOwner();\n\n  /// Only owner has an access!\n  error OnlyOwner();\n\n  modifier onlyOwner() {\n      if (msg.sender != getContractOwner()) {\n          revert OnlyOwner();\n      }\n      _;\n  }\n\n  modifier onlyWhenNotStopped() {\n    require(!isStopped);\n    _;\n  }\n\n  modifier onlyWhenStopped() {\n    require(isStopped);\n    _;\n  }\n\n  receive() external payable {}\n\n  function withdraw(uint amount) external onlyOwner onlyWhenNotStopped{\n    (bool success, ) = owner.call{value: amount}(\"\");\n    require(success, \"Transfer faild\");\n  }\n\n  function emergencyWithdraw() external onlyWhenStopped onlyOwner{\n    (bool success, ) = owner.call{value: address(this).balance}(\"\");\n    require(success, \"Transfer faild\");\n  }\n\n  function selfDestruct() external onlyWhenStopped onlyOwner{\n    selfdestruct(owner);\n  }\n\n  function stopContract() external onlyOwner onlyWhenNotStopped{\n    isStopped = true;\n  }\n\n  function resumeContract() external onlyOwner onlyWhenStopped{\n    isStopped = false;\n  }\n\n  function purchaseBook(\n    bytes16 bookId,\n    bytes32 proof\n  )\n    external\n    payable\n    onlyWhenNotStopped\n  {\n    bytes32 bookHash = keccak256(abi.encodePacked(bookId, msg.sender));\n\n    if (hasBookOwnership(bookHash)) {\n      revert BookHasOwner();\n    }\n\n    uint id = totalOwnedBooks++;\n\n    ownedBookHash[id] = bookHash;\n    ownedBooks[bookHash] = Book({\n      id: id,\n      price: msg.value,\n      proof: proof,\n      owner: msg.sender\n    });\n  }\n\n  function transferOwnership(address newOwner) external onlyOwner onlyWhenNotStopped {\n      setContractOwner(newOwner);\n  } \n\n  function getBookCount()\n    external\n    view\n    returns (uint)\n  {\n    return totalOwnedBooks;\n  }\n\n  function getBookHashAtIndex(uint index)\n    external\n    view\n    returns (bytes32)\n  {\n    return ownedBookHash[index];\n  }\n\n  function getBookByHash(bytes32 bookHash)\n    external\n    view\n    returns (Book memory)\n  {\n    return ownedBooks[bookHash];\n  }\n\n  function getIsStopped() public view returns(bool) {\n      return isStopped;\n  }\n\n  function getContractOwner() public view returns(address) {\n      return owner;\n  }\n\n  function setContractOwner(address newOwner) private {\n    owner = payable(newOwner);\n  }\n\n  function isBookCreated(bytes32 bookHash) private view returns (bool) {\n    return ownedBooks[bookHash].owner != 0x0000000000000000000000000000000000000000;\n  }\n\n  function hasBookOwnership(bytes32 bookHash)\n    private\n    view\n    returns (bool)\n  {\n    return ownedBooks[bookHash].owner == msg.sender;\n  }\n}",
  "sourcePath": "C:\\Users\\spath\\Desktop\\marketplace-eth-main\\contracts\\BookMarketplace.sol",
  "compiler": {
    "name": "solc",
    "version": "0.8.4+commit.c7e474f2.Emscripten.clang"
  },
  "schemaVersion": "3.4.4",
  "updatedAt": "2022-05-31T13:06:41.215Z",
  "networkType": "ethereum",
  "devdoc": {
    "kind": "dev",
    "methods": {},
    "version": 1
  },
  "userdoc": {
    "errors": {
      "BookHasOwner()": [
        {
          "notice": "Book has already a Owner!"
        }
      ],
      "BookIsNotCreated()": [
        {
          "notice": "Book is not created"
        }
      ],
      "OnlyOwner()": [
        {
          "notice": "Only owner has an access!"
        }
      ],
      "SenderIsNotBookOwner()": [
        {
          "notice": "Sender is not book owner!"
        }
      ]
    },
    "kind": "user",
    "methods": {},
    "version": 1
  }
}